(window.webpackJsonp=window.webpackJsonp||[]).push([[23],{392:function(t,e,a){"use strict";a.r(e);var d=a(5),c=Object(d.a)({},(function(){var t=this,e=t._self._c;return e("ContentSlotsDistributor",{attrs:{"slot-key":t.$parent.slotKey}},[e("p",[t._v("要解析的交易id： "),e("code",[t._v("fc2344f6c98cc19e5b3d7b716f9eaaeb21ab781393731652c710afd07a5505bf")]),t._v("\n原始数据内容参考：\n"),e("code",[t._v("https://tchain.btc.com/fc2344f6c98cc19e5b3d7b716f9eaaeb21ab781393731652c710afd07a5505bf.rawhex")]),t._v("\n原始数据内容:")]),t._v(" "),e("div",{staticClass:"language- extra-class"},[e("pre",{pre:!0,attrs:{class:"language-text"}},[e("code",[t._v("01000000000103373d0980f9293fc5864c02fa7946ab706a1f0a5c5aedb8ee3a7eaf4d17c65e5e010000001716001483257fc24165625e80b722a468b387ad8008976dffffff00df618d78879c213bde156e3ee55d1abe1badf750828aa0587d4a6d7fd2a41df7000000001716001461fd4f0351b7c446128c320764d59d94f9274d8bffffff00df618d78879c213bde156e3ee55d1abe1badf750828aa0587d4a6d7fd2a41df70100000017160014401fc654bf702e0bb991d8957e3b1ea3374a4f09ffffff00020084d7170000000017a9145be3eb3165f9c7ad58d3f49dc7f253ac42499eef87ebd4f2030000000017a91481dd877be5b3b60e3b1ccf547785744345570b938702483045022100b8d1e7a9453f09a0aff9288533bb6c32fcb83edee4545853dd44f9af1d4acc20022013d7a5f84ec7db69b416f7f8a863b0c98a8ad03496275bee057da26008c50ccf012103c77bad126773776975e6ee131bea89f77e212c44537cb9cc4115b201fe4e2e1302483045022100d41a793fdb4852db93a0b7f2002c0e17fbb5fd7bac8d31b00b320681c08c2c2e022000a0eb06c9f649dafb1c6ee6214aa2ac2f7422f8567947c73d8245058c9dacb8012102e2ed7b46d33f5cf691ae52dccb8dd3e06f03c0b16b4f72728df90acefcbf0cba02473044022018e2b4924e2545feb79217d48ed89fa91f60d9f11f5570332244ff9918e6cebe022078d3aa0534f448a5ed6e547f44fbd3c67305c4e01ab460225509dcdea094648c012102426b7cdb586c1d0d0909967b2d06fe4ee8289e61c7ab9ca360d5fcddd9641a3600000000\n")])])]),e("h1",{attrs:{id:"整体解析过程"}},[e("a",{staticClass:"header-anchor",attrs:{href:"#整体解析过程"}},[t._v("#")]),t._v(" 整体解析过程")]),t._v(" "),e("div",{staticClass:"language- extra-class"},[e("pre",{pre:!0,attrs:{class:"language-text"}},[e("code",[t._v("\n01000000\t\t\t\t\t\t\t\t\t\t\t\t\t\t\t\t;version\n0001\t\t\t\t\t\t\t\t\t\t\t\t\t\t\t\t\t;witness flag\n\n03\t\t\t\t\t\t\t\t\t\t\t\t\t\t\t\t\t\t;tx_in count\n373d0980f9293fc5864c02fa7946ab706a1f0a5c5aedb8ee3a7eaf4d17c65e5e\t\t;unspend txid\n01000000\t\t\t\t\t\t\t\t\t\t\t\t\t\t\t\t;unspend txid's output index\n17\t\t\t\t\t\t\t\t\t\t\t\t\t\t\t\t\t\t;scriptSig length\n16\t\t\t\t\t\t\t\t\t\t\t\t\t\t\t\t\t\t;PUSHDATA\n001483257fc24165625e80b722a468b387ad8008976d\t\t\t\t\t\t\t;P2SH(pubkey-hash)\nffffff00\t\t\t\t\t\t\t\t\t\t\t\t\t\t\t\t;sequence\ndf618d78879c213bde156e3ee55d1abe1badf750828aa0587d4a6d7fd2a41df7\t\t;unspend txid\n00000000\t\t\t\t\t\t\t\t\t\t\t\t\t\t\t\t;unspend txid's output index\n17\t\t\t\t\t\t\t\t\t\t\t\t\t\t\t\t\t\t;scriptSig length\n16\t\t\t\t\t\t\t\t\t\t\t\t\t\t\t\t\t\t;PUSHDATA\n001461fd4f0351b7c446128c320764d59d94f9274d8b\t\t\t\t\t\t\t;P2SH(pubkey-hash)\nffffff00\t\t\t\t\t\t\t\t\t\t\t\t\t\t\t\t;sequence\ndf618d78879c213bde156e3ee55d1abe1badf750828aa0587d4a6d7fd2a41df7\t\t;unspend txid\n01000000\t\t\t\t\t\t\t\t\t\t\t\t\t\t\t\t;unspend txid's output index\n17\t\t\t\t\t\t\t\t\t\t\t\t\t\t\t\t\t\t;scriptSig length\n16\t\t\t\t\t\t\t\t\t\t\t\t\t\t\t\t\t\t;PUSHDATA\n0014401fc654bf702e0bb991d8957e3b1ea3374a4f09\t\t\t\t\t\t\t;P2SH(pubkey-hash)\nffffff00\t\t\t\t\t\t\t\t\t\t\t\t\t\t\t\t;sequence\n\n02\t\t\t\t\t\t\t\t\t\t\t\t\t\t\t\t\t\t;tx_out count\n0084d71700000000\t\t\t\t\t\t\t\t\t\t\t\t\t\t;tx_out 1: value\n17\t\t\t\t\t\t\t\t\t\t\t\t\t\t\t\t\t\t;pk_script length\na9145be3eb3165f9c7ad58d3f49dc7f253ac42499eef87\t\t\t\t\t\t\t;pk_script\nebd4f20300000000\t\t\t\t\t\t\t\t\t\t\t\t\t\t;tx_out 2: value\n17\t\t\t\t\t\t\t\t\t\t\t\t\t\t\t\t\t\t;pk_script length\na91481dd877be5b3b60e3b1ccf547785744345570b9387\t\t\t\t\t\t\t;pk_script\n\n\n02\t\t\t\t\t\t\t\t\t\t\t\t\t\t\t\t\t\t;tx_in 1: item count\n48\t\t\t\t\t\t\t\t\t\t\t\t\t\t\t\t\t\t;item 1: length\n3045022100b8d1e7a9453f09a0aff9288533bb6c32fcb83edee4545853dd44f9af1d4acc20022013d7a5f84ec7db69b416f7f8a863b0c98a8ad03496275bee057da26008c50ccf01\t;item 1: content\n21\t\t\t\t\t\t\t\t\t\t\t\t\t\t\t\t\t\t;item 2: length\n03c77bad126773776975e6ee131bea89f77e212c44537cb9cc4115b201fe4e2e13\t\t;item 2: content\n02\t\t\t\t\t\t\t\t\t\t\t\t\t\t\t\t\t\t;tx_in 2: item count\n48\t\t\t\t\t\t\t\t\t\t\t\t\t\t\t\t\t\t;item 1: length\n3045022100d41a793fdb4852db93a0b7f2002c0e17fbb5fd7bac8d31b00b320681c08c2c2e022000a0eb06c9f649dafb1c6ee6214aa2ac2f7422f8567947c73d8245058c9dacb801\t;item 1: content\n21\t\t\t\t\t\t\t\t\t\t\t\t\t\t\t\t\t\t;item 2: length\n02e2ed7b46d33f5cf691ae52dccb8dd3e06f03c0b16b4f72728df90acefcbf0cba\t\t;item 2: content\n02\t\t\t\t\t\t\t\t\t\t\t\t\t\t\t\t\t\t;tx_in 3: item count\n47\t\t\t\t\t\t\t\t\t\t\t\t\t\t\t\t\t\t;item 1: length\n3044022018e2b4924e2545feb79217d48ed89fa91f60d9f11f5570332244ff9918e6cebe022078d3aa0534f448a5ed6e547f44fbd3c67305c4e01ab460225509dcdea094648c01\t\t;item 1: content\n21\t\t\t\t\t\t\t\t\t\t\t\t\t\t\t\t\t\t;item 2: length\n02426b7cdb586c1d0d0909967b2d06fe4ee8289e61c7ab9ca360d5fcddd9641a36\t\t;item 2: content\n00000000\t\t\t\t\t\t\t\t\t\t\t\t\t\t\t\t;locktime\n")])])]),e("h1",{attrs:{id:"输入脚本解析"}},[e("a",{staticClass:"header-anchor",attrs:{href:"#输入脚本解析"}},[t._v("#")]),t._v(" 输入脚本解析：")]),t._v(" "),e("div",{staticClass:"language- extra-class"},[e("pre",{pre:!0,attrs:{class:"language-text"}},[e("code",[t._v("17\t\t\t\t\t\t\t\t\t\t\t\t\t\t\t\t\t\t            ;scriptSig length\n16\t\t\t\t\t\t\t\t\t\t\t\t\t\t\t\t\t\t            ;PUSHDATA\n0014                                                                                 ;P2SH header\n83257fc24165625e80b722a468b387ad8008976d\t\t;pubkey-hash\n")])])]),e("h1",{attrs:{id:"witness-签名脚本"}},[e("a",{staticClass:"header-anchor",attrs:{href:"#witness-签名脚本"}},[t._v("#")]),t._v(" witness 签名脚本")]),t._v(" "),e("h2",{attrs:{id:"签名数据"}},[e("a",{staticClass:"header-anchor",attrs:{href:"#签名数据"}},[t._v("#")]),t._v(" 签名数据")]),t._v(" "),e("div",{staticClass:"language- extra-class"},[e("pre",{pre:!0,attrs:{class:"language-text"}},[e("code",[t._v("48 3045022100b8d1e7a9453f09a0aff9288533bb6c32fcb83edee4545853dd44f9af1d4acc20022013d7a5f84ec7db69b416f7f8a863b0c98a8ad03496275bee057da26008c50ccf01\n")])])]),e("p",[t._v("解析：")]),t._v(" "),e("div",{staticClass:"language- extra-class"},[e("pre",{pre:!0,attrs:{class:"language-text"}},[e("code",[t._v("48\t\t\t\t\t\t\t\t;length\n30\t\t\t\t\t\t\t\t;DER start\n45\t\t\t\t\t\t\t\t;DER length\n>>> DER start\n02\t\t\t\t\t\t\t\t;?\n21\t\t\t\t\t\t\t\t;R length\n00b8d1e7a9453f09a0aff9288533bb6c32fcb83edee4545853dd44f9af1d4acc20\t\t;R\n02\t\t\t\t\t\t\t\t;?\n20\t\t\t\t\t\t\t\t;S length\n13d7a5f84ec7db69b416f7f8a863b0c98a8ad03496275bee057da26008c50ccf\t\t;S\n>>> DER end\n01\n")])])]),e("h2",{attrs:{id:"签名-公钥脚本"}},[e("a",{staticClass:"header-anchor",attrs:{href:"#签名-公钥脚本"}},[t._v("#")]),t._v(" 签名 公钥脚本：")]),t._v(" "),e("div",{staticClass:"language- extra-class"},[e("pre",{pre:!0,attrs:{class:"language-text"}},[e("code",[t._v("21\t\t\t\t\t\t\t\t;pubkey length\n03c77bad126773776975e6ee131bea89f77e212c44537cb9cc4115b201fe4e2e13\t\t;pubkey\n")])])]),e("h1",{attrs:{id:"输入脚本pubkey-hash-与见证数据公钥-关系"}},[e("a",{staticClass:"header-anchor",attrs:{href:"#输入脚本pubkey-hash-与见证数据公钥-关系"}},[t._v("#")]),t._v(" 输入脚本pubkey-hash 与见证数据公钥 关系")]),t._v(" "),e("div",{staticClass:"language- extra-class"},[e("pre",{pre:!0,attrs:{class:"language-text"}},[e("code",[t._v("pubkey-hash = hash160(pubkey)\n")])])]),e("Vssue",{attrs:{title:t.$title}})],1)}),[],!1,null,null,null);e.default=c.exports}}]);