<!DOCTYPE html>
<html lang="en-US">
  <head>
    <meta charset="utf-8">
    <meta name="viewport" content="width=device-width,initial-scale=1">
    <title>比特币交易数据解析系列（4）- (旧)交易数据结构解析实例 | bitbegin</title>
    <meta name="generator" content="VuePress 1.9.9">
    
    <meta name="description" content="要解析的交易id： 10458e2d3be3f5545e91cefa9b8df82e0e220c936a01051e10b16d4abeacb3c6
原始数据内容参考：
https://tbtc.bitaps.com/raw/transaction/10458e2d3be3f5545e91cefa9b8df82e0e220c936a01051e10b16d4abeacb3c6
原始数 ...">
    
    <link rel="preload" href="/assets/css/0.styles.c02f74ab.css" as="style"><link rel="preload" href="/assets/js/app.6d905af9.js" as="script"><link rel="preload" href="/assets/js/6.d9aefc5c.js" as="script"><link rel="preload" href="/assets/js/3.f75f8ea8.js" as="script"><link rel="preload" href="/assets/js/25.efe05808.js" as="script"><link rel="prefetch" href="/assets/js/10.c49783db.js"><link rel="prefetch" href="/assets/js/11.27f8fb72.js"><link rel="prefetch" href="/assets/js/12.5ccc3682.js"><link rel="prefetch" href="/assets/js/13.13772e37.js"><link rel="prefetch" href="/assets/js/14.d5fdf6c6.js"><link rel="prefetch" href="/assets/js/15.64f91135.js"><link rel="prefetch" href="/assets/js/16.aeeb3645.js"><link rel="prefetch" href="/assets/js/17.be4c4988.js"><link rel="prefetch" href="/assets/js/18.36c5f43c.js"><link rel="prefetch" href="/assets/js/19.11035ba7.js"><link rel="prefetch" href="/assets/js/20.e97103cd.js"><link rel="prefetch" href="/assets/js/21.525d2128.js"><link rel="prefetch" href="/assets/js/22.52bff9d8.js"><link rel="prefetch" href="/assets/js/23.6bc79277.js"><link rel="prefetch" href="/assets/js/24.b88a4f5d.js"><link rel="prefetch" href="/assets/js/26.19480b5f.js"><link rel="prefetch" href="/assets/js/4.079edda5.js"><link rel="prefetch" href="/assets/js/5.680c2dc1.js"><link rel="prefetch" href="/assets/js/7.c3bc74f6.js"><link rel="prefetch" href="/assets/js/8.42adc483.js"><link rel="prefetch" href="/assets/js/9.9c0f34d3.js"><link rel="prefetch" href="/assets/js/vuejs-paginate.1cfd2050.js">
    <link rel="stylesheet" href="/assets/css/0.styles.c02f74ab.css">
  </head>
  <body>
    <div id="app" data-server-rendered="true"><div id="vuepress-theme-blog__global-layout"><section id="header-wrapper"><header id="header"><div class="header-wrapper"><div class="title"><a href="/" class="nav-link home-link">bitbegin </a></div> <div class="header-right-wrap"><ul class="nav"><li class="nav-item"><a href="/" class="nav-link">Blog</a></li><li class="nav-item"><a href="/tag/" class="nav-link">Tags</a></li></ul> <div class="search-box"><input aria-label="Search" autocomplete="off" spellcheck="false" value=""> <!----></div> <!----></div></div></header></section> <div id="mobile-header"><div class="mobile-header-bar"><div class="mobile-header-title"><a href="/" class="nav-link mobile-home-link">bitbegin </a> <svg xmlns="http://www.w3.org/2000/svg" width="24" height="24" viewBox="0 0 24 24" fill="none" stroke="currentColor" stroke-width="2" stroke-linecap="round" stroke-linejoin="round" class="feather feather-menu"><line x1="3" y1="12" x2="21" y2="12"></line><line x1="3" y1="6" x2="21" y2="6"></line><line x1="3" y1="18" x2="21" y2="18"></line></svg></div> <div class="mobile-menu-wrapper"><hr class="menu-divider"> <ul class="mobile-nav"><li class="mobile-nav-item"><a href="/" class="nav-link">Blog</a></li><li class="mobile-nav-item"><a href="/tag/" class="nav-link">Tags</a></li> <li class="mobile-nav-item"><!----></li></ul></div></div></div> <div class="content-wrapper"><div id="vuepress-theme-blog__post-layout"><article itemscope="itemscope" itemtype="https://schema.org/BlogPosting" class="vuepress-blog-theme-content"><header><h1 itemprop="name headline" class="post-title">
        比特币交易数据解析系列（4）- (旧)交易数据结构解析实例
      </h1> <div class="post-meta"><div itemprop="publisher author" itemtype="http://schema.org/Person" itemscope="itemscope" class="post-meta-author"><svg xmlns="http://www.w3.org/2000/svg" width="24" height="24" viewBox="0 0 24 24" fill="none" stroke="currentColor" stroke-width="2" stroke-linecap="round" stroke-linejoin="round" class="feather feather-navigation"><polygon points="3 11 22 2 13 21 11 13 3 11"></polygon></svg> <span itemprop="name">bitbegin</span> <span itemprop="address">   in wuhan</span></div> <div class="post-meta-date"><svg xmlns="http://www.w3.org/2000/svg" width="24" height="24" viewBox="0 0 24 24" fill="none" stroke="currentColor" stroke-width="2" stroke-linecap="round" stroke-linejoin="round" class="feather feather-clock"><circle cx="12" cy="12" r="10"></circle><polyline points="12 6 12 12 16 14"></polyline></svg> <time pubdate itemprop="datePublished" datetime="2019-06-12T16:43:00.000Z">
      Wed Jun 12 2019
    </time></div> <ul itemprop="keywords" class="post-meta-tags"><li class="post-tag" data-v-42ccfcd5><a href="/tag/BTC" data-v-42ccfcd5><span data-v-42ccfcd5>BTC</span></a></li><li class="post-tag" data-v-42ccfcd5><a href="/tag/bitcoin" data-v-42ccfcd5><span data-v-42ccfcd5>bitcoin</span></a></li><li class="post-tag" data-v-42ccfcd5><a href="/tag/legacy" data-v-42ccfcd5><span data-v-42ccfcd5>legacy</span></a></li><li class="post-tag" data-v-42ccfcd5><a href="/tag/transaction" data-v-42ccfcd5><span data-v-42ccfcd5>transaction</span></a></li></ul></div></header> <div itemprop="articleBody" class="content__default"><p>要解析的交易id： <code>10458e2d3be3f5545e91cefa9b8df82e0e220c936a01051e10b16d4abeacb3c6</code>
原始数据内容参考：
<code>https://tbtc.bitaps.com/raw/transaction/10458e2d3be3f5545e91cefa9b8df82e0e220c936a01051e10b16d4abeacb3c6</code>
原始数据内容:</p> <div class="language- extra-class"><pre class="language-text"><code>01000000063dca18206219680bf54578ae2299bcc832f0c95c86322fbdd5fdbb1d4a0acff7000000006b483045022100bb88df92ca6b737beb498c4490b277f109616a65fc2f792df6c66bd6d558480602207232be9d8e1844a21e076f02c300dcaa8d65cf0ce68817761682539fccb9e139012103a2b62a426a6e71a56684ec80c884c6ddb10a09fd431b4a57b635f71817990e32ffffffffad6e17b4c9916d63f87292ff11c7c24b77857bcc309c53e3394b770cc0609de7000000006b483045022100c3bbc3607c427ce0fb28be0fe5dc31241125ad64abd71180fa4fc23e65d4ff14022070a600d44651f360155b0ab678688eafb2a89f54e0ab931fc8f2ad72f69e163601210300278a696ba6efbf7884e4adabd7c5f6161724387ce8999eecb69975f65e1a35ffffffff99406b9daff930f57ed4444b8f79ea2a3529807bf89ce217678b499eda19e4e6000000006b483045022100f05d42ab0a0cfa85f10289d69a2e30c76c04462f43798ca7c97956558ff0032002202f8ca26c1b0d672b62cf4bb01b438196abc9a921ba605640b9087c419de07be30121031730a4d5701d941ca28f5d153cc04c1bd0533101ec9fdecdc5147096f7e4f44cffffffff30abcaa5834bdc00bb13047cf15e8f6f37f771fd4d4022dd4584380ffe6e138c000000006b483045022100ea6c681baac6187c557c1308371b00bb43e9cdfb49525ac3c293fd9b0e616fef0220514da5a9d5a55311f335fac5ec57c1c6d5071988b623a6e6912f07a11f2ef6740121033b5276e6a966e5ed9c206de5c213c68a049e364f7c5fddfbf4c561965e2ac541ffffffff5ebb81294c97ae271b8e96af7b8d374627ebe3d04285e90971db9bafb2b6a98c000000006b4830450221008e17c4bb1582c962f7f2b2df558fdeda5d03f9719ff989cd4a61bbeb71487d27022037aa7e80107858fd9f997d6b785814214e2750542fbac1f207ee49bf084239f701210285bc8e87f2e9ebaf7476d2194f300b83768e4ce25c8f145fe010ba81938a7ecbffffffffbea09d9c749de715c01d825e01330064065a0e2b2108c41038003004b082431a000000006b483045022100e92f8b716215771c4780fa397bbde393e92f9827175045df531ead64df0f0e3c02207b536cb2e292b211641c9f4acaf99a85e6489f108abca6e9e65d335036890c790121036125f085f7ee10631c8c9b676e78c6210499c2a2f1768c20f22b064c5b41fc4dffffffff011bdcc007000000001976a91433e43b89f45ff9b53726fbf4d41f8e0688410af088ac00000000
</code></pre></div><h1 id="整体解析过程"><a href="#整体解析过程" class="header-anchor">#</a> 整体解析过程</h1> <div class="language- extra-class"><pre class="language-text"><code>01000000                      ;version
06                                  ;input count
;-- input 1
3dca18206219680bf54578ae2299bcc832f0c95c86322fbdd5fdbb1d4a0acff7    ;prev_hash (32B)
00000000                    ;prev index
6b                                  ;script length(107)
483045022100bb88df92ca6b737beb498c4490b277f109616a65fc2f792df6c66bd6d558480602207232be9d8e1844a21e076f02c300dcaa8d65cf0ce68817761682539fccb9e139012103a2b62a426a6e71a56684ec80c884c6ddb10a09fd431b4a57b635f71817990e32          ;scriptSig

ffffffff                            ;sequence
;-- input 2
ad6e17b4c9916d63f87292ff11c7c24b77857bcc309c53e3394b770cc0609de7     ;prev_hash (32B)
00000000                      ;prev index
6b                                  ;script length(107)
483045022100c3bbc3607c427ce0fb28be0fe5dc31241125ad64abd71180fa4fc23e65d4ff14022070a600d44651f360155b0ab678688eafb2a89f54e0ab931fc8f2ad72f69e163601210300278a696ba6efbf7884e4adabd7c5f6161724387ce8999eecb69975f65e1a35               ;scriptSig
ffffffff                            ;sequence
;-- input 3
99406b9daff930f57ed4444b8f79ea2a3529807bf89ce217678b499eda19e4e6
00000000
6b
483045022100f05d42ab0a0cfa85f10289d69a2e30c76c04462f43798ca7c97956558ff0032002202f8ca26c1b0d672b62cf4bb01b438196abc9a921ba605640b9087c419de07be30121031730a4d5701d941ca28f5d153cc04c1bd0533101ec9fdecdc5147096f7e4f44c
ffffffff
;-- input 4
30abcaa5834bdc00bb13047cf15e8f6f37f771fd4d4022dd4584380ffe6e138c
00000000
6b
483045022100ea6c681baac6187c557c1308371b00bb43e9cdfb49525ac3c293fd9b0e616fef0220514da5a9d5a55311f335fac5ec57c1c6d5071988b623a6e6912f07a11f2ef6740121033b5276e6a966e5ed9c206de5c213c68a049e364f7c5fddfbf4c561965e2ac541
ffffffff
;-- input 5
5ebb81294c97ae271b8e96af7b8d374627ebe3d04285e90971db9bafb2b6a98c
00000000
6b
4830450221008e17c4bb1582c962f7f2b2df558fdeda5d03f9719ff989cd4a61bbeb71487d27022037aa7e80107858fd9f997d6b785814214e2750542fbac1f207ee49bf084239f701210285bc8e87f2e9ebaf7476d2194f300b83768e4ce25c8f145fe010ba81938a7ecb
ffffffff
;-- input 6
bea09d9c749de715c01d825e01330064065a0e2b2108c41038003004b082431a
00000000
6b
483045022100e92f8b716215771c4780fa397bbde393e92f9827175045df531ead64df0f0e3c02207b536cb2e292b211641c9f4acaf99a85e6489f108abca6e9e65d335036890c790121036125f085f7ee10631c8c9b676e78c6210499c2a2f1768c20f22b064c5b41fc4d
ffffffff

;-- output
01      ; output count
1bdcc00700000000
19      ; length
76a91433e43b89f45ff9b53726fbf4d41f8e0688410af088ac
00000000
</code></pre></div><h1 id="输入脚本解析"><a href="#输入脚本解析" class="header-anchor">#</a> 输入脚本解析：</h1> <p>参考 <strong>witness 签名脚本</strong></p> <div class="language- extra-class"><pre class="language-text"><code>48      ；DER length
30      ; DER start
45      ; DER len
02
21      ; len
00bb88df92ca6b737beb498c4490b277f109616a65fc2f792df6c66bd6d5584806  ;R
02      ; len
20      ; len
7232be9d8e1844a21e076f02c300dcaa8d65cf0ce68817761682539fccb9e139  ;S
01      ; 

</code></pre></div><h2 id="签名-公钥脚本"><a href="#签名-公钥脚本" class="header-anchor">#</a> 签名 公钥脚本：</h2> <div class="language- extra-class"><pre class="language-text"><code>21								;pubkey length
03a2b62a426a6e71a56684ec80c884c6ddb10a09fd431b4a57b635f71817990e32		;pubkey
</code></pre></div><!----></div> <footer><!----> <hr> <!----></footer></article> <div class="sticker vuepress-toc"><div class="vuepress-toc-item vuepress-toc-h2 active"><a href="#签名-公钥脚本" title="签名 公钥脚本：">签名 公钥脚本：</a></div></div></div></div> <footer class="footer" data-v-3d9deeb8><div class="footer-left-wrap" data-v-3d9deeb8><ul class="contact" data-v-3d9deeb8><li class="contact-item" data-v-3d9deeb8><a href="https://github.com/bitbegin" target="_blank" rel="noopener noreferrer" class="nav-link external" data-v-3d9deeb8><svg xmlns="http://www.w3.org/2000/svg" width="24" height="24" viewBox="0 0 24 24" fill="none" stroke="currentColor" stroke-width="2" stroke-linecap="round" stroke-linejoin="round" class="feather feather-github" data-v-3d9deeb8><path d="M9 19c-5 1.5-5-2.5-7-3m14 6v-3.87a3.37 3.37 0 0 0-.94-2.61c3.14-.35 6.44-1.54 6.44-7A5.44 5.44 0 0 0 20 4.77 5.07 5.07 0 0 0 19.91 1S18.73.65 16 2.48a13.38 13.38 0 0 0-7 0C6.27.65 5.09 1 5.09 1A5.07 5.07 0 0 0 5 4.77a5.44 5.44 0 0 0-1.5 3.78c0 5.42 3.3 6.61 6.44 7A3.37 3.37 0 0 0 9 18.13V22" data-v-3d9deeb8></path></svg>
          
        </a></li></ul></div> <div class="footer-right-wrap" data-v-3d9deeb8><ul class="copyright" data-v-3d9deeb8><li class="copyright-item" data-v-3d9deeb8>MIT</li></ul></div></footer></div><div class="global-ui"></div></div>
    <script src="/assets/js/app.6d905af9.js" defer></script><script src="/assets/js/6.d9aefc5c.js" defer></script><script src="/assets/js/3.f75f8ea8.js" defer></script><script src="/assets/js/25.efe05808.js" defer></script>
  </body>
</html>
